:100000000C942A000C9474170C94A0170C944700BD
:100010000C9447000C9447000C9447000C94470044
:100020000C9447000C9447000C9447000C94470034
:100030000C9447000C9447000C9447000C94470024
:100040000C9447000C9447000C9447000C94470014
:100050000C94470011241FBECFE5D8E0DEBFCDBF12
:1000600010E0A0E6B0E0E4E9F0E302C005900D92F4
:10007000A839B107D9F710E0A8E9B0E001C01D9296
:10008000A939B107E1F70E945E170C9448180C9447
:100090000000EF92FF920F931F937B018C0120E0F1
:1000A00030E040E05FE40E94490388238CF0C801FF
:1000B000B70120E030E040E05FE40E94C1010E940F
:1000C000A9039B01AC01205030404040504806C07D
:1000D000C801B7010E94A9039B01AC01B901CA0183
:1000E0001F910F91FF90EF900895A0E0B0E0EBE733
:1000F000F0E00C941118DC012B01FA019C91923074
:1001000008F439C1EB018881823008F433C194309E
:1001100069F4843009F02FC111969C91119789815F
:10012000981709F428C1A0E6B0E025C1843009F48D
:1001300021C18230A9F4923009F01DC19A01AD01AC
:1001400088E0EA010990AE01E90109929E0181501F
:10015000C1F7E201898111969C918923818308C1AD
:10016000923009F407C112962D903C901397EB0141
:100170008A819B811496AD90BD90CD90DC901797AD
:10018000EC80FD800E811F819101281B390BB90184
:1001900037FF04C066277727621B730B6032710537
:1001A0000CF061C0121613066CF537014801062EDB
:1001B00004C096948794779467940A94D2F721E0C8
:1001C00030E040E050E004C0220F331F441F551FB1
:1001D0006A95D2F721503040404050402E213F21B7
:1001E00040235123211531054105510521F021E01E
:1001F00030E040E050E079018A01E628F72808293C
:1002000019293CC0232BD1F1260E371E350146019A
:10021000062E04C096948794779467940A94D2F734
:1002200021E030E040E050E004C0220F331F441FC3
:10023000551F6A95D2F721503040404050402A2146
:100240003B214C215D21211531054105510521F04E
:1002500021E030E040E050E059016A01A628B728CB
:10026000C828D9280BC0821593052CF01C01AA249C
:10027000BB24650103C0EE24FF24870111969C91E5
:10028000D20111968C91981709F445C0992339F041
:10029000A80197012A193B094C095D0906C0A6016E
:1002A00095012E193F09400B510B57FD08C01182D3
:1002B0003382228224833583468357831DC081E0A5
:1002C00081833382228288279927DC01821B930B4A
:1002D000A40BB50B84839583A683B7830DC0220F2F
:1002E000331F441F551F24833583468357838281E0
:1002F000938101979383828324813581468157813D
:10030000DA01C9010197A109B1098F5F9F4FAF4F72
:10031000BF4328F30BC0918333822282EA0CFB1C7B
:100320000C1D1D1DE482F5820683178383E0808304
:10033000248135814681578157FF1AC0C901AA27F8
:1003400097FDA095BA2F81709070A070B0705695EF
:10035000479537952795822B932BA42BB52B848318
:100360009583A683B7838281938101969383828349
:10037000DF0101C0D201CD01CDB7DEB7E2E10C94BF
:100380002D18A0E2B0E0E7ECF1E00C941D186983B1
:100390007A838B839C832D833E834F835887E9E048
:1003A000EE2EF12CEC0EFD1ECE010196B7010E943F
:1003B000D2048E010F5E1F4FCE010596B8010E9438
:1003C000D2048A8991E089278A8BC701B801AE01DE
:1003D000475E5F4F0E9475000E94FD03A096E6E015
:1003E0000C943918A0E2B0E0E8EFF1E00C941D188D
:1003F00069837A838B839C832D833E834F835887C5
:10040000F9E0EF2EF12CEC0EFD1ECE010196B701A6
:100410000E94D2048E010F5E1F4FCE010596B801D7
:100420000E94D204C701B801AE01475E5F4F0E942F
:1004300075000E94FD03A096E6E00C943918A0E236
:10044000B0E0E5E2F2E00C94111869837A838B83C3
:100450009C832D833E834F835887CE010196BE0136
:10046000675F7F4F0E94D204CE010596BE016F5E8A
:100470007F4F0E94D2049985923088F0898982301A
:10048000C8F0943019F4823051F404C0843029F457
:10049000923081F480E690E0C6C0923049F420E0CA
:1004A0009A858A89981321E02A87CE010996BBC0D4
:1004B000823049F420E09A858A89981321E02A8BBA
:1004C000CE014196B0C02D843E844F8458886D88FB
:1004D0007E888F88988CEE24FF248701AA24BB2471
:1004E000650140E050E060E070E0E0E0F0E0C10174
:1004F00081709070892BE9F0E60CF71C081D191D1E
:100500009A01AB012A0D3B1D4C1D5D1D80E090E062
:10051000A0E0B0E0E614F7040805190520F481E036
:1005200090E0A0E0B0E0BA01A901480F591F6A1F8E
:100530007B1FAA0CBB1CCC1CDD1C97FE08C081E0F5
:1005400090E0A0E0B0E0A82AB92ACA2ADB2A3196B6
:10055000E032F10549F0660C771C881C991C569412
:10056000479437942794C3CFFA85EA892B893C892D
:100570008B859C85280F391F2E5F3F4F17C0CA01FE
:1005800081709070892B61F016950795F794E79428
:1005900080E090E0A0E0B0E8E82AF92A0A2B1B2BC3
:1005A00076956795579547952F5F3F4F77FDE7CF36
:1005B0000CC0440F551F661F771F17FD4160EE0CDE
:1005C000FF1C001F111F21503040403090E05907A0
:1005D00090E0690790E4790760F32B8F3C8FDB0193
:1005E000CA018F779070A070B07080349105A1051A
:1005F000B10561F447FD0AC0E114F10401051105DC
:1006000029F0405C5F4F6F4F7F4F40781A8EFE1786
:1006100011F081E08A8F4D8F5E8F6F8F78A383E01A
:10062000898FCE0149960E94FD03A096E2E10C94C9
:100630002D18A8E1B0E0EFE1F3E00C941D186983F8
:100640007A838B839C832D833E834F83588789E0F5
:10065000E82EF12CEC0EFD1ECE010196B7010E9492
:10066000D2048E010F5E1F4FCE010596B8010E9485
:10067000D2048985823040F08989823028F0C70110
:10068000B8010E944A0501C08FEF6896E6E00C941D
:100690003918A8E1B0E0EFE4F3E00C941D18698389
:1006A0007A838B839C832D833E834F83588789E095
:1006B000E82EF12CEC0EFD1ECE010196B7010E9432
:1006C000D2048E010F5E1F4FCE010596B8010E9425
:1006D000D2048985823040F08989823028F0C701B0
:1006E000B8010E944A0501C08FEF6896E6E00C94BD
:1006F0003918A8E1B0E0EFE7F3E00C941D18698326
:100700007A838B839C832D833E834F83588789E034
:10071000E82EF12CEC0EFD1ECE010196B7010E94D1
:10072000D2048E010F5E1F4FCE010596B8010E94C4
:10073000D2048985823040F08989823028F0C7014F
:10074000B8010E944A0501C081E06896E6E00C9479
:100750003918ACE0B0E0EFEAF3E00C9421186983BB
:100760007A838B839C83CE010196BE016B5F7F4FA2
:100770000E94D2048D81823061F1823050F1843048
:1007800021F48E81882351F12EC02F81388537FDC9
:1007900020C06E812F3131051CF06623F9F023C093
:1007A0008EE190E0821B930B29853A854B855C8511
:1007B00004C056954795379527958A95D2F76623B5
:1007C000B1F050954095309521953F4F4F4F5F4F79
:1007D0000EC020E030E040E050E009C02FEF3FEFD6
:1007E0004FEF5FE704C020E030E040E050E8B9019F
:1007F000CA012C96E2E00C943D18DF92EF92FF9232
:100800000F931F93FC01E480F58006811781D1804E
:100810008081823048F480E090E0A0E1B0E0E82AF6
:10082000F92A0A2B1B2BA5C0843009F49FC0823003
:1008300021F4EE24FF24870105C0E114F104010531
:10084000110519F4E0E0F0E096C0628173819FEF3A
:10085000623879070CF05BC022E83FEF261B370BAC
:100860002A3131052CF020E030E040E050E02AC091
:10087000B801A701022E04C0769567955795479554
:100880000A94D2F781E090E0A0E0B0E004C0880FC5
:10089000991FAA1FBB1F2A95D2F70197A109B10979
:1008A0008E219F21A023B1230097A105B10521F03E
:1008B00081E090E0A0E0B0E09A01AB01282B392B59
:1008C0004A2B5B2BDA01C9018F779070A070B07052
:1008D00080349105A105B10539F427FF09C0205CDA
:1008E0003F4F4F4F5F4F04C0215C3F4F4F4F5F4F13
:1008F000E0E0F0E02030A0E03A07A0E04A07A0E402
:100900005A0710F0E1E0F0E079018A0127C0603871
:10091000710564F5FB01E158FF4FD801C7018F77DE
:100920009070A070B07080349105A105B10539F4C4
:10093000E7FE0DC080E490E0A0E0B0E004C08FE3EB
:1009400090E0A0E0B0E0E80EF91E0A1F1B1F17FFA1
:1009500005C016950795F794E794319687E01695AC
:100960000795F794E7948A95D1F705C0EE24FF2404
:100970008701EFEFF0E06E2F679566276795902F60
:100980009F77D794DD24D7948E2F8695492F462BB9
:10099000582F5D29B701CA011F910F91FF90EF9069
:1009A000DF900895FC01DB01408151812281622F9B
:1009B0006F7770E0221F2227221F9381892F880FD3
:1009C000822B282F30E0991F9927991F11969C930D
:1009D000119721153105A9F54115510561057105DD
:1009E00011F482E037C082E89FEF13969C938E93B8
:1009F00012979A01AB0167E0220F331F441F551F66
:100A00006A95D1F783E08C930DC0220F331F441FEA
:100A1000551F12968D919C911397019713969C9355
:100A20008E931297203080E0380780E0480780E4FA
:100A3000580758F314962D933D934D935C93179755
:100A400008952F3F310579F4411551056105710570
:100A500019F484E08C93089564FF03C081E08C93C3
:100A600012C01C9210C02F57304013963C932E9307
:100A7000129783E08C9387E0440F551F661F771F02
:100A80008A95D1F7706414964D935D936D937C9322
:100A9000179708951F93DC01FB019C91923008F495
:100AA00047C08081823008F443C0943051F41196DD
:100AB0001C91843099F58181682F70E0611B710968
:100AC0003FC0843021F0923031F48230B9F181811D
:100AD000882389F12DC011961C9111978230F1F075
:100AE00081811817D9F412962D913C911397828128
:100AF00093818217930794F028173907BCF0149656
:100B00008D919D910D90BC91A02D248135814681C0
:100B10005781281739074A075B0718F4112341F05A
:100B20000AC082179307A407B50740F4112319F0F0
:100B300061E070E005C06FEF7FEF02C060E070E041
:100B4000CB011F910895DF93CF93CDB7DEB72A97DE
:100B50000FB6F894DEBF0FBECDBF89836A8389814B
:100B6000282F30E03A87298789859A858130910539
:100B7000B9F129853A852230310531F089859A8588
:100B8000009709F488C0E1C08A81282F30E03887B7
:100B90002F838F8198858130910509F4D6C02F81EC
:100BA0003885223031050CF4D0C08F819885823091
:100BB000910531F02F8138852330310549F0C5C0CA
:100BC000A4E5B0E0E4E5F0E080818F7B8C93BDC0CC
:100BD000A4E5B0E0E4E5F0E0808180648C93B5C0EA
:100BE0008A81282F30E03E832D838D819E81813044
:100BF000910521F12D813E81223031052CF48D812A
:100C00009E81009761F0A1C02D813E812230310587
:100C100021F18D819E818330910571F196C0A5E50A
:100C2000B0E0E5E5F0E080818B7F8C93A5E5B0E056
:100C3000E5E5F0E08081877F8C9387C0A5E5B0E093
:100C4000E5E5F0E080818B7F8C93A5E5B0E0E5E5FC
:100C5000F0E0808188608C9378C0A5E5B0E0E5E5A0
:100C6000F0E0808184608C93A5E5B0E0E5E5F0E0FC
:100C70008081877F8C9369C0A5E5B0E0E5E5F0E071
:100C8000808184608C93A5E5B0E0E5E5F0E08081AB
:100C900088608C935AC08A81282F30E03C832B8354
:100CA0008B819C818130910521F12B813C81223007
:100CB00031052CF48B819C81009761F046C02B811B
:100CC0003C812230310521F18B819C81833091055B
:100CD00071F13BC0A5E5B0E0E5E5F0E080818E7FF5
:100CE0008C93A5E5B0E0E5E5F0E080818D7F8C9305
:100CF0002CC0A5E5B0E0E5E5F0E080818D7F8C9328
:100D0000A5E5B0E0E5E5F0E0808181608C931DC051
:100D1000A5E5B0E0E5E5F0E0808181608C93A5E594
:100D2000B0E0E5E5F0E080818D7F8C930EC0A5E515
:100D3000B0E0E5E5F0E0808181608C93A5E5B0E06E
:100D4000E5E5F0E0808182608C932A960FB6F894F6
:100D5000DEBF0FBECDBFCF91DF910895DF93CF935C
:100D600000D00F92CDB7DEB789838981282F30E07C
:100D70003B832A838A819B818130910591F02A816E
:100D80003B812230310529F08A819B81009789F0CF
:100D900017C0ABE5B0E0EBE5F0E0808180628C93BA
:100DA0000FC0ABE5B0E0EBE5F0E0808180688C93AC
:100DB00007C0ABE5B0E0EBE5F0E0808180648C93A8
:100DC0000F900F900F90CF91DF910895DF93CF9305
:100DD00000D00F92CDB7DEB789838981282F30E00C
:100DE0003B832A838A819B818130910591F02A81FE
:100DF0003B812230310529F08A819B81009789F05F
:100E000017C0ABE5B0E0EBE5F0E080818F7D8C931F
:100E10000FC0ABE5B0E0EBE5F0E080818F7D8C9317
:100E200007C0ABE5B0E0EBE5F0E080818F7D8C930F
:100E30000F900F900F90CF91DF910895DF93CF9394
:100E400000D000D00F92CDB7DEB78A836B838A8142
:100E500086958695869589838A8187708A8389811C
:100E6000282F30E03D832C838C819D81813091053A
:100E700009F484C02C813D81223031052CF48C8111
:100E80009D81009771F0BFC12C813D8122303105D9
:100E900009F4E1C08C819D818330910509F448C13A
:100EA000B2C18B818230A1F4AAE3B0E0EAE3F0E0C2
:100EB0008081482F8A81282F30E081E090E0022E47
:100EC00002C0880F991F0A94E2F7842B8C939BC170
:100ED0008B81813041F5AAE3B0E0EAE3F0E0808164
:100EE000482F8A81282F30E081E090E002C0880FEF
:100EF000991F2A95E2F7809584238C93ABE3B0E0A9
:100F0000EBE3F0E08081482F8A81282F30E081E0F8
:100F100090E0022E02C0880F991F0A94E2F7809594
:100F200084238C9370C18B81882309F06CC1AAE360
:100F3000B0E0EAE3F0E08081482F8A81282F30E09A
:100F400081E090E002C0880F991F2A95E2F7809512
:100F500084238C93ABE3B0E0EBE3F0E08081482F97
:100F60008A81282F30E081E090E0022E02C0880FB5
:100F7000991F0A94E2F7842B8C9345C18B818230B0
:100F8000A1F4A7E3B0E0E7E3F0E08081482F8A8195
:100F9000282F30E081E090E0022E02C0880F991FD8
:100FA0000A94E2F7842B8C932EC18B81813041F51A
:100FB000A7E3B0E0E7E3F0E08081482F8A81282FA3
:100FC00030E081E090E002C0880F991F2A95E2F797
:100FD000809584238C93A8E3B0E0E8E3F0E080817F
:100FE000482F8A81282F30E081E090E0022E02C055
:100FF000880F991F0A94E2F7809584238C9303C18C
:101000008B81882309F0FFC0A7E3B0E0E7E3F0E0BD
:101010008081482F8A81282F30E081E090E002C053
:10102000880F991F2A95E2F7809584238C93A8E373
:10103000B0E0E8E3F0E08081482F8A81282F30E09B
:1010400081E090E0022E02C0880F991F0A94E2F717
:10105000842B8C93D8C08B818230A1F4A4E3B0E0C0
:10106000E4E3F0E08081482F8A81282F30E081E09E
:1010700090E0022E02C0880F991F0A94E2F7842B99
:101080008C93C1C08B81813041F5A4E3B0E0E4E3EF
:10109000F0E08081482F8A81282F30E081E090E0C5
:1010A00002C0880F991F2A95E2F7809584238C93BC
:1010B000A5E3B0E0E5E3F0E08081482F8A81282FA6
:1010C00030E081E090E0022E02C0880F991F0A9460
:1010D000E2F7809584238C9396C08B81882309F056
:1010E00092C0A4E3B0E0E4E3F0E08081482F8A817D
:1010F000282F30E081E090E002C0880F991F2A95E8
:10110000E2F7809584238C93A5E3B0E0E5E3F0E07B
:101110008081482F8A81282F30E081E090E0022EE4
:1011200002C0880F991F0A94E2F7842B8C936BC03E
:101130008B818230A1F4A1E3B0E0E1E3F0E08081B3
:10114000482F8A81282F30E081E090E0022E02C0F3
:10115000880F991F0A94E2F7842B8C9354C08B81DB
:10116000813041F5A1E3B0E0E1E3F0E08081482F78
:101170008A81282F30E081E090E002C0880F991F1B
:101180002A95E2F7809584238C93A2E3B0E0E2E312
:10119000F0E08081482F8A81282F30E081E090E0C4
:1011A000022E02C0880F991F0A94E2F780958423CB
:1011B0008C9329C08B81882331F5A1E3B0E0E1E372
:1011C000F0E08081482F8A81282F30E081E090E094
:1011D00002C0880F991F2A95E2F7809584238C938B
:1011E000A2E3B0E0E2E3F0E08081482F8A81282F7B
:1011F00030E081E090E0022E02C0880F991F0A942F
:10120000E2F7842B8C930F900F900F900F900F901C
:10121000CF91DF910895DF93CF9300D000D00F924C
:10122000CDB7DEB78A836B838A818695869586954E
:1012300089838A8187708A838981282F30E03D8362
:101240002C838C819D818130910509F447C02C81CC
:101250003D81223031052CF48C819D81009771F005
:10126000CBC02C813D812230310509F467C08C81CF
:101270009D818330910509F491C0BEC08B8181307E
:10128000A1F4ABE3B0E0EBE3F0E08081482F8A818A
:10129000282F30E081E090E0022E02C0880F991FD5
:1012A0000A94E2F7842B8C93A7C08B81882309F0E2
:1012B000A3C0ABE3B0E0EBE3F0E08081482F8A818C
:1012C000282F30E081E090E0022E02C0880F991FA5
:1012D0000A94E2F7809584238C938EC08B818130B1
:1012E000A1F4A8E3B0E0E8E3F0E08081482F8A8130
:1012F000282F30E081E090E0022E02C0880F991F75
:101300000A94E2F7842B8C9377C08B81882309F0B1
:1013100073C0A8E3B0E0E8E3F0E08081482F8A8161
:10132000282F30E081E090E0022E02C0880F991F44
:101330000A94E2F7809584238C935EC08B81813080
:10134000A1F4A5E3B0E0E5E3F0E08081482F8A81D5
:10135000282F30E081E090E0022E02C0880F991F14
:101360000A94E2F7842B8C9347C08B81882309F081
:1013700043C0A5E3B0E0E5E3F0E08081482F8A8137
:10138000282F30E081E090E0022E02C0880F991FE4
:101390000A94E2F7809584238C932EC08B81813050
:1013A000A1F4A2E3B0E0E2E3F0E08081482F8A817B
:1013B000282F30E081E090E0022E02C0880F991FB4
:1013C0000A94E2F7842B8C9317C08B818823A1F4B5
:1013D000A2E3B0E0E2E3F0E08081482F8A81282F89
:1013E00030E081E090E0022E02C0880F991F0A943D
:1013F000E2F7809584238C930F900F900F900F90BD
:101400000F90CF91DF910895DF93CF9300D000D05C
:1014100000D0CDB7DEB78B838B8186958695869578
:101420008A838B8187708B838A81282F30E03E836B
:101430002D834D815E814130510541F18D819E8129
:101440008230910534F42D813E812115310561F002
:1014500053C04D815E814230510551F18D819E8195
:1014600083309105B9F148C0E9E3F0E08081282F8D
:1014700030E08B81882F90E0A90102C055954795F7
:101480008A95E2F7CA018170898339C0E6E3F0E00A
:101490008081282F30E08B81882F90E0A90102C045
:1014A000559547958A95E2F7CA018170898327C0CF
:1014B000E3E3F0E08081282F30E08B81882F90E0FB
:1014C000A90102C0559547958A95E2F7CA01817036
:1014D000898315C0E0E3F0E08081282F30E08B8124
:1014E000882F90E0A90102C0559547958A95E2F7AB
:1014F000CA018170898303C05FEF5C8302C0898168
:101500008C838C8126960FB6F894DEBF0FBECDBFBC
:10151000CF91DF910895DF93CF9300D000D0CDB766
:10152000DEB789836A838981282F30E03C832B834F
:101530008B819C8181309105D1F02B813C812230BF
:1015400031052CF48B819C81009761F01EC02B81AA
:101550003C812230310581F08B819C818330910563
:1015600081F013C0EBE3F0E08A8180830EC0E8E3F2
:10157000F0E08A81808309C0E5E3F0E08A8180831E
:1015800004C0E2E3F0E08A8180830F900F900F9017
:101590000F90CF91DF910895DF93CF9300D000D0CB
:1015A000CDB7DEB78A838A81282F30E03C832B8336
:1015B0008B819C8181309105D1F02B813C8122303F
:1015C00031052CF48B819C81009761F01EC02B812A
:1015D0003C812230310581F08B819C8183309105E3
:1015E00081F013C0E9E3F0E0808189830EC0E6E377
:1015F000F0E08081898309C0E3E3F0E080818983A2
:1016000004C0E0E3F0E08081898389810F900F902E
:101610000F900F90CF91DF910895DF93CF930F92AA
:10162000CDB7DEB7198219820EC08981882F90E06C
:10163000FC01E859FF4F90818981692F0E941E07A4
:1016400089818F5F89838981803278F30F90CF9170
:10165000DF9108950F931F93DF93CF93CDB7DEB73C
:10166000C356D0400FB6F894DEBF0FBECDBFFE010B
:10167000ED59FF4F808388E160E00E940B09FE0175
:10168000E15AFF4F80E090E0A0E8BFE380839183C0
:10169000A283B3838E01055A1F4FFE01E15AFF4F0B
:1016A000608171818281938120E030E04AEF54E4CF
:1016B0000E941F02DC01CB01F80180839183A28389
:1016C000B383FE01E55AFF4F60817181828193816E
:1016D00020E030E040E85FE30E947903882344F48F
:1016E000FE01E75AFF4F81E090E09183808364C060
:1016F000FE01E55AFF4F608171818281938120E074
:101700003FEF4FE757E40E94190318160CF043C04F
:10171000FE01E15AFF4F608171818281938120E057
:1017200030E040E251E40E941F02DC01CB018E0157
:10173000075A1F4FBC01CD010E944900DC01CB01BB
:10174000F801918380831FC0FE01E95AFF4F88ECA6
:1017500090E091838083FE01E95AFF4F808191815F
:101760000197F1F7FE01E95AFF4F91838083DE0173
:10177000A75ABF4FFE01E75AFF4F80819181019721
:1017800011969C938E93FE01E75AFF4F80819181C1
:101790000097D1F627C08E01075A1F4FFE01E55A68
:1017A000FF4F60817181828193810E944900DC0139
:1017B000CB01F80191838083DE01AB5ABF4FFE015C
:1017C000E75AFF4F808191818D939C93FE01EB5AE4
:1017D000FF4F808191810197F1F7FE01EB5AFF4F96
:1017E0009183808389E161E00E940B09FE01EF5A39
:1017F000FF4F80E090E0A0E8BFE380839183A28365
:10180000B3838E01035B1F4FFE01EF5AFF4F6081D0
:1018100071818281938120E030E04AEF54E40E949C
:101820001F02DC01CB01F80180839183A283B38383
:10183000FE01E35BFF4F608171818281938120E033
:1018400030E040E85FE30E947903882344F4FE011E
:10185000E55BFF4F81E090E09183808364C0FE01EF
:10186000E35BFF4F608171818281938120E03FEFD4
:101870004FE757E40E94190318160CF043C0FE010D
:10188000EF5AFF4F608171818281938120E030E0C7
:1018900040E251E40E941F02DC01CB018E01055B96
:1018A0001F4FBC01CD010E944900DC01CB01F801B2
:1018B000918380831FC0FE01E75BFF4F88EC90E0BF
:1018C00091838083FE01E75BFF4F808191810197C7
:1018D000F1F7FE01E75BFF4F91838083DE01A55B9B
:1018E000BF4FFE01E55BFF4F80819181019711960B
:1018F0009C938E93FE01E55BFF4F80819181009761
:10190000D1F627C08E01055B1F4FFE01E35BFF4F41
:1019100060817181828193810E944900DC01CB0149
:10192000F80191838083DE01A95BBF4FFE01E55B77
:10193000FF4F808191818D939C93FE01E95BFF4F66
:10194000808191810197F1F7FE01E95BFF4F91835F
:101950008083FE01ED59FF4F8081982F991F9927B1
:10196000991F83E1692F0E940B09FE01ED59FF4F7A
:1019700080818295869586958370982F917082E1FB
:10198000692F0E940B09FE01ED59FF4F808182955E
:1019900086958770982F917081E1692F0E940B09BD
:1019A000FE01ED59FF4F808182958F70982F9170C5
:1019B00080E1692F0E940B09FE01ED5BFF4F80E083
:1019C00090E0A0E8BFE380839183A283B3838E017C
:1019D000015C1F4FFE01ED5BFF4F608171818281D1
:1019E000938120E030E04AEF54E40E941F02DC01C2
:1019F000CB01F80180839183A283B383FE01FF961C
:101A0000608171818281938120E030E040E85FE372
:101A10000E94790388232CF481E090E09EAF8DAF83
:101A200046C0FE01FF96608171818281938120E032
:101A30003FEF4FE757E40E941903181664F5FE01C3
:101A4000ED5BFF4F608171818281938120E030E006
:101A500040E251E40E941F02DC01CB01BC01CD0138
:101A60000E944900DC01CB019EAF8DAF0FC088EC16
:101A700090E09CAF8BAF8BAD9CAD0197F1F79CAF25
:101A80008BAF8DAD9EAD01979EAF8DAF8DAD9EADF1
:101A9000009769F716C0FE01FF966081718182810F
:101AA00093810E944900DC01CB019EAF8DAF8DADCB
:101AB0009EAD9AAF89AF89AD9AAD0197F1F79AAF14
:101AC00089AF89E160E00E940B0980E090E0A0E826
:101AD000BFE38DAB9EABAFABB8AF6DA97EA98FA9AD
:101AE00098AD20E030E04AEF54E40E941F02DC0190
:101AF000CB0189AB9AABABABBCAB69A97AA98BA97B
:101B00009CA920E030E040E85FE30E94790388234D
:101B10002CF481E090E098AB8FA73FC069A97AA927
:101B20008BA99CA920E03FEF4FE757E40E941903DF
:101B300018164CF56DA97EA98FA998AD20E030E06C
:101B400040E251E40E941F02DC01CB01BC01CD0147
:101B50000E944900DC01CB0198AB8FA70FC088EC35
:101B600090E09EA78DA78DA59EA50197F1F79EA752
:101B70008DA78FA598A9019798AB8FA78FA598A936
:101B8000009769F714C069A97AA98BA99CA90E943A
:101B90004900DC01CB0198AB8FA78FA598A99CA722
:101BA0008BA78BA59CA50197F1F79CA78BA789E133
:101BB00061E00E940B0980E090E0A0E8BFE38FA302
:101BC00098A7A9A7BAA76FA178A589A59AA520E08B
:101BD00030E04AEF54E40E941F02DC01CB018BA3EA
:101BE0009CA3ADA3BEA36BA17CA18DA19EA120E06F
:101BF00030E040E85FE30E94790388232CF481E021
:101C000090E09AA389A33FC06BA17CA18DA19EA166
:101C100020E03FEF4FE757E40E94190318164CF5F8
:101C20006FA178A589A59AA520E030E040E251E4B3
:101C30000E941F02DC01CB01BC01CD010E944900C2
:101C4000DC01CB019AA389A30FC088EC90E098A394
:101C50008F8F8F8D98A10197F1F798A38F8F89A10E
:101C60009AA101979AA389A389A19AA1009769F7DC
:101C700014C06BA17CA18DA19EA10E944900DC0132
:101C8000CB019AA389A389A19AA19E8F8D8F8D8D57
:101C90009E8D0197F1F79E8F8D8FFE01ED59FF4FBD
:101CA0008081869586958695982F917083E1692F1E
:101CB0000E940B09FE01ED59FF4F808186958695A4
:101CC000982F917082E1692F0E940B09FE01ED5956
:101CD000FF4F80818695982F917081E1692F0E9436
:101CE0000B09FE01ED59FF4F8081982F917080E123
:101CF000692F0E940B0980E090E0A0E8BFE3898F84
:101D00009A8FAB8FBC8F698D7A8D8B8D9C8D20E0E7
:101D100030E04AEF54E40E941F02DC01CB018D8BBE
:101D20009E8BAF8BB88F6D897E898F89988D20E0CF
:101D300030E040E85FE30E94790388232CF481E0DF
:101D400090E09C8B8B8B3FC06D897E898F89988DAD
:101D500020E03FEF4FE757E40E94190318164CF5B7
:101D6000698D7A8D8B8D9C8D20E030E040E251E4CE
:101D70000E941F02DC01CB01BC01CD010E94490081
:101D8000DC01CB019C8B8B8B0FC088EC90E09A8B95
:101D9000898B89899A890197F1F79A8B898B8B892D
:101DA0009C8901979C8B8B8B8B899C89009769F709
:101DB00014C06D897E898F89988D0E944900DC014D
:101DC000CB019C8B8B8B8B899C89988B8F878F8584
:101DD00098890197F1F7988B8F8789E160E00E94DD
:101DE0000B0980E090E0A0E8BFE38B879C87AD877C
:101DF000BE876B857C858D859E8520E030E04AEF2F
:101E000054E40E941F02DC01CB018F839887A987CD
:101E1000BA876F81788589859A8520E030E040E82F
:101E20005FE30E94790388232CF481E090E09E8395
:101E30008D833FC06F81788589859A8520E03FEF4B
:101E40004FE757E40E94190318164CF56B857C8503
:101E50008D859E8520E030E040E251E40E941F0223
:101E6000DC01CB01BC01CD010E944900DC01CB01AA
:101E70009E838D830FC088EC90E09C838B838B8145
:101E80009C810197F1F79C838B838D819E810197C3
:101E90009E838D838D819E81009769F714C06F8129
:101EA000788589859A850E944900DC01CB019E8353
:101EB0008D838D819E819A83898389819A810197FF
:101EC000F1F79A838983CD59DF4F0FB6F894DEBFBF
:101ED0000FBECDBFCF91DF911F910F9108950F934A
:101EE0001F93DF93CF93CDB7DEB7C455D0400FB665
:101EF000F894DEBF0FBECDBFFE01EF5AFF4F80E06A
:101F000090E0A8EFB1E480839183A283B3838E0134
:101F1000035B1F4FFE01EF5AFF4F60817181828189
:101F2000938120E030E04AEF54E40E941F02DC017C
:101F3000CB01F80180839183A283B383FE01E35B2D
:101F4000FF4F608171818281938120E030E040E821
:101F50005FE30E947903882344F4FE01E55BFF4FB1
:101F600081E090E09183808364C0FE01E35BFF4FDA
:101F7000608171818281938120E03FEF4FE757E4D8
:101F80000E94190318160CF043C0FE01EF5AFF4FD0
:101F9000608171818281938120E030E040E251E4F0
:101FA0000E941F02DC01CB018E01055B1F4FBC01AB
:101FB000CD010E944900DC01CB01F80191838083AF
:101FC0001FC0FE01E75BFF4F88EC90E091838083A8
:101FD000FE01E75BFF4F808191810197F1F7FE01E0
:101FE000E75BFF4F91838083DE01A55BBF4FFE015E
:101FF000E55BFF4F80819181019711969C938E93B1
:10200000FE01E55BFF4F808191810097D1F627C0EB
:102010008E01055B1F4FFE01E35BFF4F6081718105
:10202000828193810E944900DC01CB01F8019183F8
:102030008083DE01A95BBF4FFE01E55BFF4F80811E
:1020400091818D939C93FE01E95BFF4F808191818B
:102050000197F1F7FE01E95BFF4F9183808388E3ED
:102060000E942A0BFE01ED5BFF4F80E090E0A0E8AC
:10207000BFE380839183A283B3838E01015C1F4FF2
:10208000FE01ED5BFF4F608171818281938120E0D1
:1020900030E04AEF54E40E941F02DC01CB01F8015A
:1020A00080839183A283B383FE01FF966081718157
:1020B0008281938120E030E040E85FE30E94790371
:1020C00088232CF481E090E09EAF8DAF46C0FE01E6
:1020D000FF96608171818281938120E03FEF4FE71D
:1020E00057E40E941903181664F5FE01ED5BFF4FDB
:1020F000608171818281938120E030E040E251E48F
:102100000E941F02DC01CB01BC01CD010E944900ED
:10211000DC01CB019EAF8DAF0FC088EC90E09CAF8F
:102120008BAF8BAD9CAD0197F1F79CAF8BAF8DADB5
:102130009EAD01979EAF8DAF8DAD9EAD009769F7B7
:1021400016C0FE01FF9660817181828193810E9499
:102150004900DC01CB019EAF8DAF8DAD9EAD9AAF36
:1021600089AF89AD9AAD0197F1F79AAF89AF82E354
:102170000E942A0B80E090E0A0E8BFE38DAB9EAB0D
:10218000AFABB8AF6DA97EA98FA998AD20E030E0C4
:102190004AEF54E40E941F02DC01CB0189AB9AABE9
:1021A000ABABBCAB69A97AA98BA99CA920E030E0B4
:1021B00040E85FE30E94790388232CF481E090E0FB
:1021C00098AB8FA73FC069A97AA98BA99CA920E0E9
:1021D0003FEF4FE757E40E94190318164CF56DA91D
:1021E0007EA98FA998AD20E030E040E251E40E9442
:1021F0001F02DC01CB01BC01CD010E944900DC01C2
:10220000CB0198AB8FA70FC088EC90E09EA78DA75D
:102210008DA59EA50197F1F79EA78DA78FA598A9DB
:10222000019798AB8FA78FA598A9009769F714C05D
:1022300069A97AA98BA99CA90E944900DC01CB015C
:1022400098AB8FA78FA598A99CA78BA78BA59CA5BA
:102250000197F1F79CA78BA788E20E942A0B80E0E8
:1022600090E0A0E8BFE38FA398A7A9A7BAA76FA1A2
:1022700078A589A59AA520E030E04AEF54E40E94B1
:102280001F02DC01CB018BA39CA3ADA3BEA36BA15A
:102290007CA18DA19EA120E030E040E85FE30E9498
:1022A000790388232CF481E090E09AA389A33FC0AE
:1022B0006BA17CA18DA19EA120E03FEF4FE757E4E9
:1022C0000E94190318164CF56FA178A589A59AA547
:1022D00020E030E040E251E40E941F02DC01CB012B
:1022E000BC01CD010E944900DC01CB019AA389A366
:1022F0000FC088EC90E098A38F8F8F8D98A10197E5
:10230000F1F798A38F8F89A19AA101979AA389A326
:1023100089A19AA1009769F714C06BA17CA18DA136
:102320009EA10E944900DC01CB019AA389A389A147
:102330009AA19E8F8D8F8D8D9E8D0197F1F79E8F27
:102340008D8F81E00E942A0B80E090E0A0E8BFE33F
:10235000898F9A8FAB8FBC8F698D7A8D8B8D9C8D79
:1023600020E030E04AEF54E40E941F02DC01CB0180
:102370008D8B9E8BAF8BB88F6D897E898F89988D61
:1023800020E030E040E85FE30E94790388232CF4EA
:1023900081E090E09C8B8B8B3FC06D897E898F891B
:1023A000988D20E03FEF4FE757E40E94190318167D
:1023B0004CF5698D7A8D8B8D9C8D20E030E040E26C
:1023C00051E40E941F02DC01CB01BC01CD010E943F
:1023D0004900DC01CB019C8B8B8B0FC088EC90E01B
:1023E0009A8B898B89899A890197F1F79A8B898BC6
:1023F0008B899C8901979C8B8B8B8B899C890097FF
:1024000069F714C06D897E898F89988D0E94490073
:10241000DC01CB019C8B8B8B8B899C89988B8F8764
:102420008F8598890197F1F7988B8F878CE00E94B0
:102430002A0B80E090E0A0E8BFE38B879C87AD8704
:10244000BE876B857C858D859E8520E030E04AEFD8
:1024500054E40E941F02DC01CB018F839887A98777
:10246000BA876F81788589859A8520E030E040E8D9
:102470005FE30E94790388232CF481E090E09E833F
:102480008D833FC06F81788589859A8520E03FEFF5
:102490004FE757E40E94190318164CF56B857C85AD
:1024A0008D859E8520E030E040E251E40E941F02CD
:1024B000DC01CB01BC01CD010E944900DC01CB0154
:1024C0009E838D830FC088EC90E09C838B838B81EF
:1024D0009C810197F1F79C838B838D819E8101976D
:1024E0009E838D838D819E81009769F714C06F81D3
:1024F000788589859A850E944900DC01CB019E83FD
:102500008D838D819E819A83898389819A810197A8
:10251000F1F79A838983CC5ADF4F0FB6F894DEBF68
:102520000FBECDBFCF91DF911F910F9108950F93F3
:102530001F93DF93CF93CDB7DEB7C555D0400FB60D
:10254000F894DEBF0FBECDBFFE01EB5AFF4F808374
:1025500088E161E00E940B09FE01EF5AFF4F80E025
:1025600090E0A0E8BFE380839183A283B3838E01D0
:10257000035B1F4FFE01EF5AFF4F60817181828123
:10258000938120E030E04AEF54E40E941F02DC0116
:10259000CB01F80180839183A283B383FE01E35BC7
:1025A000FF4F608171818281938120E030E040E8BB
:1025B0005FE30E947903882344F4FE01E55BFF4F4B
:1025C00081E090E09183808364C0FE01E35BFF4F74
:1025D000608171818281938120E03FEF4FE757E472
:1025E0000E94190318160CF043C0FE01EF5AFF4F6A
:1025F000608171818281938120E030E040E251E48A
:102600000E941F02DC01CB018E01055B1F4FBC0144
:10261000CD010E944900DC01CB01F8019183808348
:102620001FC0FE01E75BFF4F88EC90E09183808341
:10263000FE01E75BFF4F808191810197F1F7FE0179
:10264000E75BFF4F91838083DE01A55BBF4FFE01F7
:10265000E55BFF4F80819181019711969C938E934A
:10266000FE01E55BFF4F808191810097D1F627C085
:102670008E01055B1F4FFE01E35BFF4F608171819F
:10268000828193810E944900DC01CB01F801918392
:102690008083DE01A95BBF4FFE01E55BFF4F8081B8
:1026A00091818D939C93FE01E95BFF4F8081918125
:1026B0000197F1F7FE01E95BFF4F9183808389E188
:1026C00061E00E940B09FE01ED5BFF4F80E090E0AE
:1026D000A0E8BFE380839183A283B3838E01015C72
:1026E0001F4FFE01ED5BFF4F6081718182819381FD
:1026F00020E030E04AEF54E40E941F02DC01CB01ED
:10270000F80180839183A283B383FE01FF966081E9
:1027100071818281938120E030E040E85FE30E9494
:10272000790388232CF481E090E09EAF8DAF46C002
:10273000FE01FF96608171818281938120E03FEFED
:102740004FE757E40E941903181664F5FE01ED5B8C
:10275000FF4F608171818281938120E030E040E20F
:1027600051E40E941F02DC01CB01BC01CD010E949B
:102770004900DC01CB019EAF8DAF0FC088EC90E02B
:102780009CAF8BAF8BAD9CAD0197F1F79CAF8BAF3E
:102790008DAD9EAD01979EAF8DAF8DAD9EAD009777
:1027A00069F716C0FE01FF96608171818281938175
:1027B0000E944900DC01CB019EAF8DAF8DAD9EAD77
:1027C0009AAF89AF89AD9AAD0197F1F79AAF89AF0A
:1027D000FE01EB5AFF4F8081982F991F9927991F6F
:1027E00083E1692F0E940B09FE01EB5AFF4F8081A4
:1027F0008295869586958370982F917082E1692FD6
:102800000E940B09FE01EB5AFF4F8081829586954D
:102810008770982F917081E1692F0E940B09FE014A
:10282000EB5AFF4F808182958F70982F917080E1D5
:10283000692F0E940B0989E160E00E940B0980E08A
:1028400090E0A0E8BFE38DAB9EABAFABB8AF6DA996
:102850007EA98FA998AD20E030E04AEF54E40E94B1
:102860001F02DC01CB0189AB9AABABABBCAB69A956
:102870007AA98BA99CA920E030E040E85FE30E94A0
:10288000790388232CF481E090E098AB8FA73FC0B8
:1028900069A97AA98BA99CA920E03FEF4FE757E4EB
:1028A0000E94190318164CF56DA97EA98FA998AD41
:1028B00020E030E040E251E40E941F02DC01CB0145
:1028C000BC01CD010E944900DC01CB0198AB8FA770
:1028D0000FC088EC90E09EA78DA78DA59EA50197BF
:1028E000F1F79EA78DA78FA598A9019798AB8FA701
:1028F0008FA598A9009769F714C069A97AA98BA92F
:102900009CA90E944900DC01CB0198AB8FA78FA541
:1029100098A99CA78BA78BA59CA50197F1F79CA7CD
:102920008BA789E161E00E940B0980E090E0A0E8BC
:10293000BFE38FA398A7A9A7BAA76FA178A589A578
:102940009AA520E030E04AEF54E40E941F02DC0127
:10295000CB018BA39CA3ADA3BEA36BA17CA18DA136
:102960009EA120E030E040E85FE30E9479038823E5
:102970002CF481E090E09AA389A33FC06BA17CA1D5
:102980008DA19EA120E03FEF4FE757E40E9419037D
:1029900018164CF56FA178A589A59AA520E030E01E
:1029A00040E251E40E941F02DC01CB01BC01CD01D9
:1029B0000E944900DC01CB019AA389A30FC088ECD7
:1029C00090E098A38F8F8F8D98A10197F1F798A32E
:1029D0008F8F89A19AA101979AA389A389A19AA10E
:1029E000009769F714C06BA17CA18DA19EA10E94E4
:1029F0004900DC01CB019AA389A389A19AA19E8FEA
:102A00008D8F8D8D9E8D0197F1F79E8F8D8FFE019D
:102A1000EB5AFF4F8081869586958695982F917009
:102A200083E1692F0E940B09FE01EB5AFF4F808161
:102A300086958695982F917082E1692F0E940B09E7
:102A4000FE01EB5AFF4F80818695982F917081E1AE
:102A5000692F0E940B09FE01EB5AFF4F8081982FCE
:102A6000917080E1692F0E940B0980E090E0A0E85E
:102A7000BFE3898F9A8FAB8FBC8F698D7A8D8B8DD9
:102A80009C8D20E030E04AEF54E40E941F02DC01FC
:102A9000CB018D8B9E8BAF8BB88F6D897E898F8993
:102AA000988D20E030E040E85FE30E9479038823BE
:102AB0002CF481E090E09C8B8B8B3FC06D897E89EC
:102AC0008F89988D20E03FEF4FE757E40E9419036C
:102AD00018164CF5698D7A8D8B8D9C8D20E030E039
:102AE00040E251E40E941F02DC01CB01BC01CD0198
:102AF0000E944900DC01CB019C8B8B8B0FC088ECC2
:102B000090E09A8B898B89899A890197F1F79A8B42
:102B1000898B8B899C8901979C8B8B8B8B899C895A
:102B2000009769F714C06D897E898F89988D0E94FE
:102B30004900DC01CB019C8B8B8B8B899C89988B0A
:102B40008F878F8598890197F1F7988B8F8789E117
:102B500060E00E940B0980E090E0A0E8BFE38B8773
:102B60009C87AD87BE876B857C858D859E8520E0A3
:102B700030E04AEF54E40E941F02DC01CB018F8356
:102B80009887A987BA876F81788589859A8520E09B
:102B900030E040E85FE30E94790388232CF481E071
:102BA00090E09E838D833FC06F81788589859A856B
:102BB00020E03FEF4FE757E40E94190318164CF549
:102BC0006B857C858D859E8520E030E040E251E478
:102BD0000E941F02DC01CB01BC01CD010E94490013
:102BE000DC01CB019E838D830FC088EC90E09C8339
:102BF0008B838B819C810197F1F79C838B838D81E3
:102C00009E8101979E838D838D819E81009769F7B8
:102C100014C06F81788589859A850E944900DC01FE
:102C2000CB019E838D838D819E819A838983898147
:102C30009A810197F1F79A838983CB5ADF4F0FB6B8
:102C4000F894DEBF0FBECDBFCF91DF911F910F91E2
:102C50000895DF93CF9300D000D0CDB7DEB79C832B
:102C60008B831A8219820FC029813A818B819C81C2
:102C7000FC01E20FF31F80810E94971289819A81E3
:102C800001969A83898329813A818B819C81FC01F9
:102C9000E20FF31F8081882339F70F900F900F9078
:102CA0000F90CF91DF9108950F931F93DF93CF93F0
:102CB000CDB7DEB761970FB6F894DEBF0FBECDBFBC
:102CC0006E877F87888B998B1B822EC08B81082F04
:102CD00010E08E859F85A889B9892AE030E040E020
:102CE00050E0BC01CD010E94D417DC01CB01282F9C
:102CF000205DCE010496FC01E00FF11F20838B8143
:102D00008F5F8B838E859F85A889B9892AE030E003
:102D100040E050E0BC01CD010E94D417DA01C901A6
:102D20008E879F87A88BB98B8E859F85A889B98947
:102D30000097A105B10551F68B81882F90E001978E
:102D40009A8389830FC029813A81CE010496FC01C0
:102D5000E20FF31F80810E94971289819A81019767
:102D60009A83898389819A8199236CF761960FB63A
:102D7000F894DEBF0FBECDBFCF91DF911F910F91B1
:102D80000895DF93CF9300D00F92CDB7DEB78A833B
:102D90006B8380E889838A81882331F489819B81D0
:102DA000890F0E942A0B06C099818B81890F805C54
:102DB0000E942A0B0F900F900F90CF91DF910895F2
:102DC000DF93CF9300D000D0CDB7DEB79A8389834D
:102DD0006B834C838B816C810E94C11689819A819F
:102DE0000E9429160F900F900F900F90CF91DF91B6
:102DF0000895DF93CF93CDB7DEB781E00E942A0B11
:102E0000CF91DF910895DF93CF930F92CDB7DEB7C7
:102E1000198208C08981805F61E00E940B09898165
:102E20008F5F898389818430A8F30F90CF91DF91E0
:102E30000895DF93CF9300D00F92CDB7DEB71A82FB
:102E400033C08A81805F60E00E940B09198221C033
:102E50008981845E0E94040A882391F48A81482F24
:102E600050E08981282F30E0CA01880F991F880F10
:102E7000991F820F931FFC01E857FF4F80818B83BE
:102E80008981845E0E94040A8823D1F389818F5F3F
:102E9000898389818430E0F28A81805F61E00E94C9
:102EA0000B098A818F5F8A838A81843050F28B81FB
:102EB0000F900F900F90CF91DF910895DF93CF93F4
:102EC000CDB7DEB70E940D0B86E061E00E94A3053E
:102ED00087E061E00E94A30586E00E94AE0687E0DD
:102EE0000E94AE067894FFCF1F920F920FB60F92FA
:102EF00011242F933F934F935F936F937F938F93FF
:102F00009F93AF93BF93EF93FF93DF93CF93CDB78F
:102F1000DEB780E061E00E940B09CF91DF91FF9165
:102F2000EF91BF91AF919F918F917F916F915F9141
:102F30004F913F912F910F900FBE0F901F901895BA
:102F40001F920F920FB60F9211242F933F934F931E
:102F50005F936F937F938F939F93AF93BF93EF9301
:102F6000FF93DF93CF93CDB7DEB79091980081E0C8
:102F70008927809398009091980081E0692F0E94A2
:102F80000B09CF91DF91FF91EF91BF91AF919F918D
:102F90008F917F916F915F914F913F912F910F9002
:102FA0000FBE0F901F90189597FB092E05260ED087
:102FB00057FD04D014D00AD0001C38F45095409529
:102FC000309521953F4F4F4F5F4F0895F6F79095FD
:102FD0008095709561957F4F8F4F9F4F0895A1E227
:102FE0001A2EAA1BBB1BFD010DC0AA1FBB1FEE1F83
:102FF000FF1FA217B307E407F50720F0A21BB30BCE
:10300000E40BF50B661F771F881F991F1A9469F749
:1030100060957095809590959B01AC01BD01CF01A5
:1030200008952F923F924F925F926F927F928F926C
:103030009F92AF92BF92CF92DF92EF92FF920F9347
:103040001F93CF93DF93CDB7DEB7CA1BDB0B0FB651
:10305000F894DEBF0FBECDBF09942A88398848880E
:103060005F846E847D848C849B84AA84B984C884A4
:10307000DF80EE80FD800C811B81AA81B981CE0F9B
:10308000D11D0FB6F894DEBF0FBECDBFED01089580
:04309000F894FFCFE2
:103094000000000000000000020202010101010121
:1030A4000202010101010101020202020101010106
:1030B400010200000101020231323334353637385F
:0830C40039232A2E3030303090
:00000001FF
